{
  "_format": "hh-sol-artifact-1",
  "contractName": "ProofOfCommerceSBT",
  "sourceName": "contracts/ProofOfCommerceSBT.sol",
  "abi": [
    {
      "inputs": [
        {
          "internalType": "address",
          "name": "admin",
          "type": "address"
        },
        {
          "internalType": "address",
          "name": "minter",
          "type": "address"
        }
      ],
      "stateMutability": "nonpayable",
      "type": "constructor"
    },
    {
      "inputs": [],
      "name": "AccessControlBadConfirmation",
      "type": "error"
    },
    {
      "inputs": [
        {
          "internalType": "address",
          "name": "account",
          "type": "address"
        },
        {
          "internalType": "bytes32",
          "name": "neededRole",
          "type": "bytes32"
        }
      ],
      "name": "AccessControlUnauthorizedAccount",
      "type": "error"
    },
    {
      "inputs": [
        {
          "internalType": "address",
          "name": "sender",
          "type": "address"
        },
        {
          "internalType": "uint256",
          "name": "tokenId",
          "type": "uint256"
        },
        {
          "internalType": "address",
          "name": "owner",
          "type": "address"
        }
      ],
      "name": "ERC721IncorrectOwner",
      "type": "error"
    },
    {
      "inputs": [
        {
          "internalType": "address",
          "name": "operator",
          "type": "address"
        },
        {
          "internalType": "uint256",
          "name": "tokenId",
          "type": "uint256"
        }
      ],
      "name": "ERC721InsufficientApproval",
      "type": "error"
    },
    {
      "inputs": [
        {
          "internalType": "address",
          "name": "approver",
          "type": "address"
        }
      ],
      "name": "ERC721InvalidApprover",
      "type": "error"
    },
    {
      "inputs": [
        {
          "internalType": "address",
          "name": "operator",
          "type": "address"
        }
      ],
      "name": "ERC721InvalidOperator",
      "type": "error"
    },
    {
      "inputs": [
        {
          "internalType": "address",
          "name": "owner",
          "type": "address"
        }
      ],
      "name": "ERC721InvalidOwner",
      "type": "error"
    },
    {
      "inputs": [
        {
          "internalType": "address",
          "name": "receiver",
          "type": "address"
        }
      ],
      "name": "ERC721InvalidReceiver",
      "type": "error"
    },
    {
      "inputs": [
        {
          "internalType": "address",
          "name": "sender",
          "type": "address"
        }
      ],
      "name": "ERC721InvalidSender",
      "type": "error"
    },
    {
      "inputs": [
        {
          "internalType": "uint256",
          "name": "tokenId",
          "type": "uint256"
        }
      ],
      "name": "ERC721NonexistentToken",
      "type": "error"
    },
    {
      "anonymous": false,
      "inputs": [
        {
          "indexed": true,
          "internalType": "address",
          "name": "owner",
          "type": "address"
        },
        {
          "indexed": true,
          "internalType": "address",
          "name": "approved",
          "type": "address"
        },
        {
          "indexed": true,
          "internalType": "uint256",
          "name": "tokenId",
          "type": "uint256"
        }
      ],
      "name": "Approval",
      "type": "event"
    },
    {
      "anonymous": false,
      "inputs": [
        {
          "indexed": true,
          "internalType": "address",
          "name": "owner",
          "type": "address"
        },
        {
          "indexed": true,
          "internalType": "address",
          "name": "operator",
          "type": "address"
        },
        {
          "indexed": false,
          "internalType": "bool",
          "name": "approved",
          "type": "bool"
        }
      ],
      "name": "ApprovalForAll",
      "type": "event"
    },
    {
      "anonymous": false,
      "inputs": [
        {
          "indexed": true,
          "internalType": "uint256",
          "name": "tokenId",
          "type": "uint256"
        },
        {
          "indexed": false,
          "internalType": "string",
          "name": "metadataUri",
          "type": "string"
        }
      ],
      "name": "MetadataUpdated",
      "type": "event"
    },
    {
      "anonymous": false,
      "inputs": [
        {
          "indexed": true,
          "internalType": "address",
          "name": "account",
          "type": "address"
        },
        {
          "indexed": true,
          "internalType": "uint256",
          "name": "tokenId",
          "type": "uint256"
        },
        {
          "indexed": false,
          "internalType": "uint256",
          "name": "fiatAmount",
          "type": "uint256"
        },
        {
          "indexed": false,
          "internalType": "string",
          "name": "fiatCurrency",
          "type": "string"
        },
        {
          "indexed": false,
          "internalType": "uint256",
          "name": "pyusdAmount",
          "type": "uint256"
        },
        {
          "indexed": false,
          "internalType": "string",
          "name": "counterparty",
          "type": "string"
        },
        {
          "indexed": false,
          "internalType": "string",
          "name": "commandId",
          "type": "string"
        },
        {
          "indexed": false,
          "internalType": "string",
          "name": "metadataUri",
          "type": "string"
        }
      ],
      "name": "ProofMinted",
      "type": "event"
    },
    {
      "anonymous": false,
      "inputs": [
        {
          "indexed": true,
          "internalType": "bytes32",
          "name": "role",
          "type": "bytes32"
        },
        {
          "indexed": true,
          "internalType": "bytes32",
          "name": "previousAdminRole",
          "type": "bytes32"
        },
        {
          "indexed": true,
          "internalType": "bytes32",
          "name": "newAdminRole",
          "type": "bytes32"
        }
      ],
      "name": "RoleAdminChanged",
      "type": "event"
    },
    {
      "anonymous": false,
      "inputs": [
        {
          "indexed": true,
          "internalType": "bytes32",
          "name": "role",
          "type": "bytes32"
        },
        {
          "indexed": true,
          "internalType": "address",
          "name": "account",
          "type": "address"
        },
        {
          "indexed": true,
          "internalType": "address",
          "name": "sender",
          "type": "address"
        }
      ],
      "name": "RoleGranted",
      "type": "event"
    },
    {
      "anonymous": false,
      "inputs": [
        {
          "indexed": true,
          "internalType": "bytes32",
          "name": "role",
          "type": "bytes32"
        },
        {
          "indexed": true,
          "internalType": "address",
          "name": "account",
          "type": "address"
        },
        {
          "indexed": true,
          "internalType": "address",
          "name": "sender",
          "type": "address"
        }
      ],
      "name": "RoleRevoked",
      "type": "event"
    },
    {
      "anonymous": false,
      "inputs": [
        {
          "indexed": true,
          "internalType": "address",
          "name": "from",
          "type": "address"
        },
        {
          "indexed": true,
          "internalType": "address",
          "name": "to",
          "type": "address"
        },
        {
          "indexed": true,
          "internalType": "uint256",
          "name": "tokenId",
          "type": "uint256"
        }
      ],
      "name": "Transfer",
      "type": "event"
    },
    {
      "inputs": [],
      "name": "DEFAULT_ADMIN_ROLE",
      "outputs": [
        {
          "internalType": "bytes32",
          "name": "",
          "type": "bytes32"
        }
      ],
      "stateMutability": "view",
      "type": "function"
    },
    {
      "inputs": [],
      "name": "METADATA_ROLE",
      "outputs": [
        {
          "internalType": "bytes32",
          "name": "",
          "type": "bytes32"
        }
      ],
      "stateMutability": "view",
      "type": "function"
    },
    {
      "inputs": [],
      "name": "MINT_ROLE",
      "outputs": [
        {
          "internalType": "bytes32",
          "name": "",
          "type": "bytes32"
        }
      ],
      "stateMutability": "view",
      "type": "function"
    },
    {
      "inputs": [
        {
          "internalType": "address",
          "name": "to",
          "type": "address"
        },
        {
          "internalType": "uint256",
          "name": "tokenId",
          "type": "uint256"
        }
      ],
      "name": "approve",
      "outputs": [],
      "stateMutability": "nonpayable",
      "type": "function"
    },
    {
      "inputs": [
        {
          "internalType": "address",
          "name": "owner",
          "type": "address"
        }
      ],
      "name": "balanceOf",
      "outputs": [
        {
          "internalType": "uint256",
          "name": "",
          "type": "uint256"
        }
      ],
      "stateMutability": "view",
      "type": "function"
    },
    {
      "inputs": [
        {
          "internalType": "uint256",
          "name": "tokenId",
          "type": "uint256"
        }
      ],
      "name": "burn",
      "outputs": [],
      "stateMutability": "nonpayable",
      "type": "function"
    },
    {
      "inputs": [
        {
          "internalType": "uint256",
          "name": "tokenId",
          "type": "uint256"
        }
      ],
      "name": "getApproved",
      "outputs": [
        {
          "internalType": "address",
          "name": "",
          "type": "address"
        }
      ],
      "stateMutability": "view",
      "type": "function"
    },
    {
      "inputs": [
        {
          "internalType": "uint256",
          "name": "tokenId",
          "type": "uint256"
        }
      ],
      "name": "getMetadata",
      "outputs": [
        {
          "components": [
            {
              "internalType": "uint256",
              "name": "fiatAmount",
              "type": "uint256"
            },
            {
              "internalType": "string",
              "name": "fiatCurrency",
              "type": "string"
            },
            {
              "internalType": "uint256",
              "name": "pyusdAmount",
              "type": "uint256"
            },
            {
              "internalType": "string",
              "name": "counterparty",
              "type": "string"
            },
            {
              "internalType": "uint256",
              "name": "timestamp",
              "type": "uint256"
            },
            {
              "internalType": "string",
              "name": "commandId",
              "type": "string"
            },
            {
              "internalType": "string",
              "name": "metadataUri",
              "type": "string"
            }
          ],
          "internalType": "struct ProofOfCommerceSBT.TransactionMetadata",
          "name": "",
          "type": "tuple"
        }
      ],
      "stateMutability": "view",
      "type": "function"
    },
    {
      "inputs": [
        {
          "internalType": "bytes32",
          "name": "role",
          "type": "bytes32"
        }
      ],
      "name": "getRoleAdmin",
      "outputs": [
        {
          "internalType": "bytes32",
          "name": "",
          "type": "bytes32"
        }
      ],
      "stateMutability": "view",
      "type": "function"
    },
    {
      "inputs": [
        {
          "internalType": "bytes32",
          "name": "role",
          "type": "bytes32"
        },
        {
          "internalType": "address",
          "name": "account",
          "type": "address"
        }
      ],
      "name": "grantRole",
      "outputs": [],
      "stateMutability": "nonpayable",
      "type": "function"
    },
    {
      "inputs": [
        {
          "internalType": "bytes32",
          "name": "role",
          "type": "bytes32"
        },
        {
          "internalType": "address",
          "name": "account",
          "type": "address"
        }
      ],
      "name": "hasRole",
      "outputs": [
        {
          "internalType": "bool",
          "name": "",
          "type": "bool"
        }
      ],
      "stateMutability": "view",
      "type": "function"
    },
    {
      "inputs": [
        {
          "internalType": "address",
          "name": "owner",
          "type": "address"
        },
        {
          "internalType": "address",
          "name": "operator",
          "type": "address"
        }
      ],
      "name": "isApprovedForAll",
      "outputs": [
        {
          "internalType": "bool",
          "name": "",
          "type": "bool"
        }
      ],
      "stateMutability": "view",
      "type": "function"
    },
    {
      "inputs": [
        {
          "internalType": "address",
          "name": "to",
          "type": "address"
        },
        {
          "components": [
            {
              "internalType": "uint256",
              "name": "fiatAmount",
              "type": "uint256"
            },
            {
              "internalType": "string",
              "name": "fiatCurrency",
              "type": "string"
            },
            {
              "internalType": "uint256",
              "name": "pyusdAmount",
              "type": "uint256"
            },
            {
              "internalType": "string",
              "name": "counterparty",
              "type": "string"
            },
            {
              "internalType": "uint256",
              "name": "timestamp",
              "type": "uint256"
            },
            {
              "internalType": "string",
              "name": "commandId",
              "type": "string"
            },
            {
              "internalType": "string",
              "name": "metadataUri",
              "type": "string"
            }
          ],
          "internalType": "struct ProofOfCommerceSBT.TransactionMetadata",
          "name": "data",
          "type": "tuple"
        }
      ],
      "name": "mintProof",
      "outputs": [
        {
          "internalType": "uint256",
          "name": "",
          "type": "uint256"
        }
      ],
      "stateMutability": "nonpayable",
      "type": "function"
    },
    {
      "inputs": [],
      "name": "name",
      "outputs": [
        {
          "internalType": "string",
          "name": "",
          "type": "string"
        }
      ],
      "stateMutability": "view",
      "type": "function"
    },
    {
      "inputs": [
        {
          "internalType": "uint256",
          "name": "tokenId",
          "type": "uint256"
        }
      ],
      "name": "ownerOf",
      "outputs": [
        {
          "internalType": "address",
          "name": "",
          "type": "address"
        }
      ],
      "stateMutability": "view",
      "type": "function"
    },
    {
      "inputs": [
        {
          "internalType": "bytes32",
          "name": "role",
          "type": "bytes32"
        },
        {
          "internalType": "address",
          "name": "callerConfirmation",
          "type": "address"
        }
      ],
      "name": "renounceRole",
      "outputs": [],
      "stateMutability": "nonpayable",
      "type": "function"
    },
    {
      "inputs": [
        {
          "internalType": "bytes32",
          "name": "role",
          "type": "bytes32"
        },
        {
          "internalType": "address",
          "name": "account",
          "type": "address"
        }
      ],
      "name": "revokeRole",
      "outputs": [],
      "stateMutability": "nonpayable",
      "type": "function"
    },
    {
      "inputs": [
        {
          "internalType": "address",
          "name": "from",
          "type": "address"
        },
        {
          "internalType": "address",
          "name": "to",
          "type": "address"
        },
        {
          "internalType": "uint256",
          "name": "tokenId",
          "type": "uint256"
        }
      ],
      "name": "safeTransferFrom",
      "outputs": [],
      "stateMutability": "nonpayable",
      "type": "function"
    },
    {
      "inputs": [
        {
          "internalType": "address",
          "name": "from",
          "type": "address"
        },
        {
          "internalType": "address",
          "name": "to",
          "type": "address"
        },
        {
          "internalType": "uint256",
          "name": "tokenId",
          "type": "uint256"
        },
        {
          "internalType": "bytes",
          "name": "data",
          "type": "bytes"
        }
      ],
      "name": "safeTransferFrom",
      "outputs": [],
      "stateMutability": "nonpayable",
      "type": "function"
    },
    {
      "inputs": [
        {
          "internalType": "address",
          "name": "operator",
          "type": "address"
        },
        {
          "internalType": "bool",
          "name": "approved",
          "type": "bool"
        }
      ],
      "name": "setApprovalForAll",
      "outputs": [],
      "stateMutability": "nonpayable",
      "type": "function"
    },
    {
      "inputs": [
        {
          "internalType": "bytes4",
          "name": "interfaceId",
          "type": "bytes4"
        }
      ],
      "name": "supportsInterface",
      "outputs": [
        {
          "internalType": "bool",
          "name": "",
          "type": "bool"
        }
      ],
      "stateMutability": "view",
      "type": "function"
    },
    {
      "inputs": [],
      "name": "symbol",
      "outputs": [
        {
          "internalType": "string",
          "name": "",
          "type": "string"
        }
      ],
      "stateMutability": "view",
      "type": "function"
    },
    {
      "inputs": [
        {
          "internalType": "uint256",
          "name": "tokenId",
          "type": "uint256"
        }
      ],
      "name": "tokenURI",
      "outputs": [
        {
          "internalType": "string",
          "name": "",
          "type": "string"
        }
      ],
      "stateMutability": "view",
      "type": "function"
    },
    {
      "inputs": [],
      "name": "totalMinted",
      "outputs": [
        {
          "internalType": "uint256",
          "name": "",
          "type": "uint256"
        }
      ],
      "stateMutability": "view",
      "type": "function"
    },
    {
      "inputs": [
        {
          "internalType": "address",
          "name": "from",
          "type": "address"
        },
        {
          "internalType": "address",
          "name": "to",
          "type": "address"
        },
        {
          "internalType": "uint256",
          "name": "tokenId",
          "type": "uint256"
        }
      ],
      "name": "transferFrom",
      "outputs": [],
      "stateMutability": "nonpayable",
      "type": "function"
    },
    {
      "inputs": [
        {
          "internalType": "uint256",
          "name": "tokenId",
          "type": "uint256"
        },
        {
          "internalType": "string",
          "name": "metadataUri",
          "type": "string"
        }
      ],
      "name": "updateMetadata",
      "outputs": [],
      "stateMutability": "nonpayable",
      "type": "function"
    }
  ],
  "bytecode": "0x608060405234801561001057600080fd5b50604051613d25380380613d2583398181016040528101906100329190610311565b6040518060400160405280601281526020017f50726f6f664f66436f6d6d6572636553425400000000000000000000000000008152506040518060400160405280600681526020017f504f43534254000000000000000000000000000000000000000000000000000081525081600090816100ad91906105a1565b5080600190816100bd91906105a1565b5050506100d36000801b8361013d60201b60201c565b506101047f154c00819833dac601ee5ddded6fda79d9d8b506b911b3dbd54cdb95fe6c36868261013d60201b60201c565b506101357f6bd6b5318a46e5fff572d5e4258a20774aab40cc35ac7680654b9081fcc82f808361013d60201b60201c565b505050610673565b600061014f838361023b60201b60201c565b6102305760016006600085815260200190815260200160002060000160008473ffffffffffffffffffffffffffffffffffffffff1673ffffffffffffffffffffffffffffffffffffffff16815260200190815260200160002060006101000a81548160ff0219169083151502179055506101cd6102a660201b60201c565b73ffffffffffffffffffffffffffffffffffffffff168273ffffffffffffffffffffffffffffffffffffffff16847f2f8788117e7eff1d82e926ec794901d17c78024a50270940304540a733656f0d60405160405180910390a460019050610235565b600090505b92915050565b60006006600084815260200190815260200160002060000160008373ffffffffffffffffffffffffffffffffffffffff1673ffffffffffffffffffffffffffffffffffffffff16815260200190815260200160002060009054906101000a900460ff16905092915050565b600033905090565b600080fd5b600073ffffffffffffffffffffffffffffffffffffffff82169050919050565b60006102de826102b3565b9050919050565b6102ee816102d3565b81146102f957600080fd5b50565b60008151905061030b816102e5565b92915050565b60008060408385031215610328576103276102ae565b5b6000610336858286016102fc565b9250506020610347858286016102fc565b9150509250929050565b600081519050919050565b7f4e487b7100000000000000000000000000000000000000000000000000000000600052604160045260246000fd5b7f4e487b7100000000000000000000000000000000000000000000000000000000600052602260045260246000fd5b600060028204905060018216806103d257607f821691505b6020821081036103e5576103e461038b565b5b50919050565b60008190508160005260206000209050919050565b60006020601f8301049050919050565b600082821b905092915050565b60006008830261044d7fffffffffffffffffffffffffffffffffffffffffffffffffffffffffffffffff82610410565b6104578683610410565b95508019841693508086168417925050509392505050565b6000819050919050565b6000819050919050565b600061049e6104996104948461046f565b610479565b61046f565b9050919050565b6000819050919050565b6104b883610483565b6104cc6104c4826104a5565b84845461041d565b825550505050565b600090565b6104e16104d4565b6104ec8184846104af565b505050565b5b81811015610510576105056000826104d9565b6001810190506104f2565b5050565b601f82111561055557610526816103eb565b61052f84610400565b8101602085101561053e578190505b61055261054a85610400565b8301826104f1565b50505b505050565b600082821c905092915050565b60006105786000198460080261055a565b1980831691505092915050565b60006105918383610567565b9150826002028217905092915050565b6105aa82610351565b67ffffffffffffffff8111156105c3576105c261035c565b5b6105cd82546103ba565b6105d8828285610514565b600060209050601f83116001811461060b57600084156105f9578287015190505b6106038582610585565b86555061066b565b601f198416610619866103eb565b60005b828110156106415784890151825560018201915060208501945060208101905061061c565b8683101561065e578489015161065a601f891682610567565b8355505b6001600288020188555050505b505050505050565b6136a3806106826000396000f3fe608060405234801561001057600080fd5b506004361061018e5760003560e01c806370a08231116100de578063a574cea411610097578063d547741f11610071578063d547741f146104a5578063e985e9c5146104c1578063e9a9c850146104f1578063f7cb4a121461050f5761018e565b8063a574cea414610429578063b88d4fde14610459578063c87b56dd146104755761018e565b806370a082311461035357806391d148541461038357806395d89b41146103b3578063a217fddf146103d1578063a22cb465146103ef578063a2309ff81461040b5761018e565b80632f2ff15d1161014b57806342842e0e1161012557806342842e0e146102cf57806342966c68146102eb57806353c8388e146103075780636352211e146103235761018e565b80632f2ff15d1461027957806336568abe1461029557806338841782146102b15761018e565b806301ffc9a71461019357806306fdde03146101c3578063081812fc146101e1578063095ea7b31461021157806323b872dd1461022d578063248a9ca314610249575b600080fd5b6101ad60048036038101906101a891906124f0565b61053f565b6040516101ba9190612538565b60405180910390f35b6101cb610551565b6040516101d891906125e3565b60405180910390f35b6101fb60048036038101906101f6919061263b565b6105e3565b60405161020891906126a9565b60405180910390f35b61022b600480360381019061022691906126f0565b6105ff565b005b61024760048036038101906102429190612730565b610615565b005b610263600480360381019061025e91906127b9565b610717565b60405161027091906127f5565b60405180910390f35b610293600480360381019061028e9190612810565b610737565b005b6102af60048036038101906102aa9190612810565b610759565b005b6102b96107d4565b6040516102c691906127f5565b60405180910390f35b6102e960048036038101906102e49190612730565b6107f8565b005b6103056004803603810190610300919061263b565b610818565b005b610321600480360381019061031c91906128b5565b6108e9565b005b61033d6004803603810190610338919061263b565b6109d9565b60405161034a91906126a9565b60405180910390f35b61036d60048036038101906103689190612915565b6109eb565b60405161037a9190612951565b60405180910390f35b61039d60048036038101906103989190612810565b610aa5565b6040516103aa9190612538565b60405180910390f35b6103bb610b10565b6040516103c891906125e3565b60405180910390f35b6103d9610ba2565b6040516103e691906127f5565b60405180910390f35b61040960048036038101906104049190612998565b610ba9565b005b610413610bbf565b6040516104209190612951565b60405180910390f35b610443600480360381019061043e919061263b565b610bc9565b6040516104509190612ae2565b60405180910390f35b610473600480360381019061046e9190612c34565b610ebc565b005b61048f600480360381019061048a919061263b565b610ee1565b60405161049c91906125e3565b60405180910390f35b6104bf60048036038101906104ba9190612810565b610f4a565b005b6104db60048036038101906104d69190612cb7565b610f6c565b6040516104e89190612538565b60405180910390f35b6104f9611000565b60405161050691906127f5565b60405180910390f35b61052960048036038101906105249190612d1b565b611024565b6040516105369190612951565b60405180910390f35b600061054a826111be565b9050919050565b60606000805461056090612da6565b80601f016020809104026020016040519081016040528092919081815260200182805461058c90612da6565b80156105d95780601f106105ae576101008083540402835291602001916105d9565b820191906000526020600020905b8154815290600101906020018083116105bc57829003601f168201915b5050505050905090565b60006105ee82611238565b506105f8826112c0565b9050919050565b610611828261060c6112fd565b611305565b5050565b600073ffffffffffffffffffffffffffffffffffffffff168273ffffffffffffffffffffffffffffffffffffffff16036106875760006040517f64a0ae9200000000000000000000000000000000000000000000000000000000815260040161067e91906126a9565b60405180910390fd5b600061069b83836106966112fd565b611317565b90508373ffffffffffffffffffffffffffffffffffffffff168173ffffffffffffffffffffffffffffffffffffffff1614610711578382826040517f64283d7b00000000000000000000000000000000000000000000000000000000815260040161070893929190612dd7565b60405180910390fd5b50505050565b600060066000838152602001908152602001600020600101549050919050565b61074082610717565b610749816113dc565b61075383836113f0565b50505050565b6107616112fd565b73ffffffffffffffffffffffffffffffffffffffff168173ffffffffffffffffffffffffffffffffffffffff16146107c5576040517f6697b23200000000000000000000000000000000000000000000000000000000815260040160405180910390fd5b6107cf82826114e2565b505050565b7f6bd6b5318a46e5fff572d5e4258a20774aab40cc35ac7680654b9081fcc82f8081565b61081383838360405180602001604052806000815250610ebc565b505050565b7f6bd6b5318a46e5fff572d5e4258a20774aab40cc35ac7680654b9081fcc82f80610842816113dc565b61084b826115d5565b6008600083815260200190815260200160002060008082016000905560018201600061087791906123ea565b600282016000905560038201600061088f91906123ea565b60048201600090556005820160006108a791906123ea565b6006820160006108b791906123ea565b505060006009600084815260200190815260200160002060006101000a81548160ff0219169083151502179055505050565b7f6bd6b5318a46e5fff572d5e4258a20774aab40cc35ac7680654b9081fcc82f80610913816113dc565b6009600085815260200190815260200160002060009054906101000a900460ff16610973576040517f08c379a000000000000000000000000000000000000000000000000000000000815260040161096a90612e5a565b60405180910390fd5b8282600860008781526020019081526020016000206006019182610998929190613031565b50837f459157ba24c7ab9878b165ef465fa6ae2ab42bcd8445f576be378768b0c4730984846040516109cb92919061312e565b60405180910390a250505050565b60006109e482611238565b9050919050565b60008073ffffffffffffffffffffffffffffffffffffffff168273ffffffffffffffffffffffffffffffffffffffff1603610a5e5760006040517f89c62b64000000000000000000000000000000000000000000000000000000008152600401610a5591906126a9565b60405180910390fd5b600360008373ffffffffffffffffffffffffffffffffffffffff1673ffffffffffffffffffffffffffffffffffffffff168152602001908152602001600020549050919050565b60006006600084815260200190815260200160002060000160008373ffffffffffffffffffffffffffffffffffffffff1673ffffffffffffffffffffffffffffffffffffffff16815260200190815260200160002060009054906101000a900460ff16905092915050565b606060018054610b1f90612da6565b80601f0160208091040260200160405190810160405280929190818152602001828054610b4b90612da6565b8015610b985780601f10610b6d57610100808354040283529160200191610b98565b820191906000526020600020905b815481529060010190602001808311610b7b57829003601f168201915b5050505050905090565b6000801b81565b610bbb610bb46112fd565b838361165b565b5050565b6000600754905090565b610bd161242a565b6009600083815260200190815260200160002060009054906101000a900460ff16610c31576040517f08c379a0000000000000000000000000000000000000000000000000000000008152600401610c2890612e5a565b60405180910390fd5b600860008381526020019081526020016000206040518060e001604052908160008201548152602001600182018054610c6990612da6565b80601f0160208091040260200160405190810160405280929190818152602001828054610c9590612da6565b8015610ce25780601f10610cb757610100808354040283529160200191610ce2565b820191906000526020600020905b815481529060010190602001808311610cc557829003601f168201915b5050505050815260200160028201548152602001600382018054610d0590612da6565b80601f0160208091040260200160405190810160405280929190818152602001828054610d3190612da6565b8015610d7e5780601f10610d5357610100808354040283529160200191610d7e565b820191906000526020600020905b815481529060010190602001808311610d6157829003601f168201915b5050505050815260200160048201548152602001600582018054610da190612da6565b80601f0160208091040260200160405190810160405280929190818152602001828054610dcd90612da6565b8015610e1a5780601f10610def57610100808354040283529160200191610e1a565b820191906000526020600020905b815481529060010190602001808311610dfd57829003601f168201915b50505050508152602001600682018054610e3390612da6565b80601f0160208091040260200160405190810160405280929190818152602001828054610e5f90612da6565b8015610eac5780601f10610e8157610100808354040283529160200191610eac565b820191906000526020600020905b815481529060010190602001808311610e8f57829003601f168201915b5050505050815250509050919050565b610ec7848484610615565b610edb610ed26112fd565b858585856117ca565b50505050565b6060610eec82611238565b506000610ef761197b565b90506000815111610f175760405180602001604052806000815250610f42565b80610f2184611992565b604051602001610f3292919061318e565b6040516020818303038152906040525b915050919050565b610f5382610717565b610f5c816113dc565b610f6683836114e2565b50505050565b6000600560008473ffffffffffffffffffffffffffffffffffffffff1673ffffffffffffffffffffffffffffffffffffffff16815260200190815260200160002060008373ffffffffffffffffffffffffffffffffffffffff1673ffffffffffffffffffffffffffffffffffffffff16815260200190815260200160002060009054906101000a900460ff16905092915050565b7f154c00819833dac601ee5ddded6fda79d9d8b506b911b3dbd54cdb95fe6c368681565b60007f154c00819833dac601ee5ddded6fda79d9d8b506b911b3dbd54cdb95fe6c3686611050816113dc565b60016007600082825461106391906131e1565b925050819055506000600754905061107b8582611a60565b8360086000838152602001908152602001600020818161109b919061340a565b90505060016009600083815260200190815260200160002060006101000a81548160ff021916908315150217905550808573ffffffffffffffffffffffffffffffffffffffff167fa299c538e6dce7318f77242b5f01dec403065f98da135b631224094d951e65a4866000013587806020019061111891906132ac565b89604001358a806060019061112d91906132ac565b8c8060a0019061113d91906132ac565b8e8060c0019061114d91906132ac565b6040516111639a99989796959493929190613418565b60405180910390a3807f459157ba24c7ab9878b165ef465fa6ae2ab42bcd8445f576be378768b0c47309858060c0019061119d91906132ac565b6040516111ab92919061312e565b60405180910390a2809250505092915050565b60007f7965db0b000000000000000000000000000000000000000000000000000000007bffffffffffffffffffffffffffffffffffffffffffffffffffffffff1916827bffffffffffffffffffffffffffffffffffffffffffffffffffffffff19161480611231575061123082611b59565b5b9050919050565b60008061124483611c3b565b9050600073ffffffffffffffffffffffffffffffffffffffff168173ffffffffffffffffffffffffffffffffffffffff16036112b757826040517f7e2732890000000000000000000000000000000000000000000000000000000081526004016112ae9190612951565b60405180910390fd5b80915050919050565b60006004600083815260200190815260200160002060009054906101000a900473ffffffffffffffffffffffffffffffffffffffff169050919050565b600033905090565b6113128383836001611c78565b505050565b600080611325858585611e3d565b9050600073ffffffffffffffffffffffffffffffffffffffff168173ffffffffffffffffffffffffffffffffffffffff16141580156113915750600073ffffffffffffffffffffffffffffffffffffffff168573ffffffffffffffffffffffffffffffffffffffff1614155b156113d1576040517f08c379a00000000000000000000000000000000000000000000000000000000081526004016113c8906134e9565b60405180910390fd5b809150509392505050565b6113ed816113e86112fd565b612057565b50565b60006113fc8383610aa5565b6114d75760016006600085815260200190815260200160002060000160008473ffffffffffffffffffffffffffffffffffffffff1673ffffffffffffffffffffffffffffffffffffffff16815260200190815260200160002060006101000a81548160ff0219169083151502179055506114746112fd565b73ffffffffffffffffffffffffffffffffffffffff168273ffffffffffffffffffffffffffffffffffffffff16847f2f8788117e7eff1d82e926ec794901d17c78024a50270940304540a733656f0d60405160405180910390a4600190506114dc565b600090505b92915050565b60006114ee8383610aa5565b156115ca5760006006600085815260200190815260200160002060000160008473ffffffffffffffffffffffffffffffffffffffff1673ffffffffffffffffffffffffffffffffffffffff16815260200190815260200160002060006101000a81548160ff0219169083151502179055506115676112fd565b73ffffffffffffffffffffffffffffffffffffffff168273ffffffffffffffffffffffffffffffffffffffff16847ff6391f5c32d9c69d2a47ea670b442974b53935d1edc7fd64eb21e047a839171b60405160405180910390a4600190506115cf565b600090505b92915050565b60006115e46000836000611317565b9050600073ffffffffffffffffffffffffffffffffffffffff168173ffffffffffffffffffffffffffffffffffffffff160361165757816040517f7e27328900000000000000000000000000000000000000000000000000000000815260040161164e9190612951565b60405180910390fd5b5050565b600073ffffffffffffffffffffffffffffffffffffffff168273ffffffffffffffffffffffffffffffffffffffff16036116cc57816040517f5b08ba180000000000000000000000000000000000000000000000000000000081526004016116c391906126a9565b60405180910390fd5b80600560008573ffffffffffffffffffffffffffffffffffffffff1673ffffffffffffffffffffffffffffffffffffffff16815260200190815260200160002060008473ffffffffffffffffffffffffffffffffffffffff1673ffffffffffffffffffffffffffffffffffffffff16815260200190815260200160002060006101000a81548160ff0219169083151502179055508173ffffffffffffffffffffffffffffffffffffffff168373ffffffffffffffffffffffffffffffffffffffff167f17307eab39ab6107e8899845ad3d59bd9653f200f220920489ca2b5937696c31836040516117bd9190612538565b60405180910390a3505050565b60008373ffffffffffffffffffffffffffffffffffffffff163b1115611974578273ffffffffffffffffffffffffffffffffffffffff1663150b7a02868685856040518563ffffffff1660e01b8152600401611829949392919061355e565b6020604051808303816000875af192505050801561186557506040513d601f19601f8201168201806040525081019061186291906135bf565b60015b6118e9573d8060008114611895576040519150601f19603f3d011682016040523d82523d6000602084013e61189a565b606091505b5060008151036118e157836040517f64a0ae920000000000000000000000000000000000000000000000000000000081526004016118d891906126a9565b60405180910390fd5b805160208201fd5b63150b7a0260e01b7bffffffffffffffffffffffffffffffffffffffffffffffffffffffff1916817bffffffffffffffffffffffffffffffffffffffffffffffffffffffff19161461197257836040517f64a0ae9200000000000000000000000000000000000000000000000000000000815260040161196991906126a9565b60405180910390fd5b505b5050505050565b606060405180602001604052806000815250905090565b6060600060016119a1846120a8565b01905060008167ffffffffffffffff8111156119c0576119bf612b09565b5b6040519080825280601f01601f1916602001820160405280156119f25781602001600182028036833780820191505090505b509050600082602083010190505b600115611a55578080600190039150507f3031323334353637383961626364656600000000000000000000000000000000600a86061a8153600a8581611a4957611a486135ec565b5b04945060008503611a00575b819350505050919050565b600073ffffffffffffffffffffffffffffffffffffffff168273ffffffffffffffffffffffffffffffffffffffff1603611ad25760006040517f64a0ae92000000000000000000000000000000000000000000000000000000008152600401611ac991906126a9565b60405180910390fd5b6000611ae083836000611317565b9050600073ffffffffffffffffffffffffffffffffffffffff168173ffffffffffffffffffffffffffffffffffffffff1614611b545760006040517f73c6ac6e000000000000000000000000000000000000000000000000000000008152600401611b4b91906126a9565b60405180910390fd5b505050565b60007f80ac58cd000000000000000000000000000000000000000000000000000000007bffffffffffffffffffffffffffffffffffffffffffffffffffffffff1916827bffffffffffffffffffffffffffffffffffffffffffffffffffffffff19161480611c2457507f5b5e139f000000000000000000000000000000000000000000000000000000007bffffffffffffffffffffffffffffffffffffffffffffffffffffffff1916827bffffffffffffffffffffffffffffffffffffffffffffffffffffffff1916145b80611c345750611c33826121fb565b5b9050919050565b60006002600083815260200190815260200160002060009054906101000a900473ffffffffffffffffffffffffffffffffffffffff169050919050565b8080611cb15750600073ffffffffffffffffffffffffffffffffffffffff168273ffffffffffffffffffffffffffffffffffffffff1614155b15611de5576000611cc184611238565b9050600073ffffffffffffffffffffffffffffffffffffffff168373ffffffffffffffffffffffffffffffffffffffff1614158015611d2c57508273ffffffffffffffffffffffffffffffffffffffff168173ffffffffffffffffffffffffffffffffffffffff1614155b8015611d3f5750611d3d8184610f6c565b155b15611d8157826040517fa9fbf51f000000000000000000000000000000000000000000000000000000008152600401611d7891906126a9565b60405180910390fd5b8115611de357838573ffffffffffffffffffffffffffffffffffffffff168273ffffffffffffffffffffffffffffffffffffffff167f8c5be1e5ebec7d5bd14f71427d1e84f3dd0314c0f7b2291e5b200ac8c7c3b92560405160405180910390a45b505b836004600085815260200190815260200160002060006101000a81548173ffffffffffffffffffffffffffffffffffffffff021916908373ffffffffffffffffffffffffffffffffffffffff16021790555050505050565b600080611e4984611c3b565b9050600073ffffffffffffffffffffffffffffffffffffffff168373ffffffffffffffffffffffffffffffffffffffff1614611e8b57611e8a818486612265565b5b600073ffffffffffffffffffffffffffffffffffffffff168173ffffffffffffffffffffffffffffffffffffffff1614611f1c57611ecd600085600080611c78565b6001600360008373ffffffffffffffffffffffffffffffffffffffff1673ffffffffffffffffffffffffffffffffffffffff168152602001908152602001600020600082825403925050819055505b600073ffffffffffffffffffffffffffffffffffffffff168573ffffffffffffffffffffffffffffffffffffffff1614611f9f576001600360008773ffffffffffffffffffffffffffffffffffffffff1673ffffffffffffffffffffffffffffffffffffffff168152602001908152602001600020600082825401925050819055505b846002600086815260200190815260200160002060006101000a81548173ffffffffffffffffffffffffffffffffffffffff021916908373ffffffffffffffffffffffffffffffffffffffff160217905550838573ffffffffffffffffffffffffffffffffffffffff168273ffffffffffffffffffffffffffffffffffffffff167fddf252ad1be2c89b69c2b068fc378daa952ba7f163c4a11628f55a4df523b3ef60405160405180910390a4809150509392505050565b6120618282610aa5565b6120a45780826040517fe2517d3f00000000000000000000000000000000000000000000000000000000815260040161209b92919061361b565b60405180910390fd5b5050565b600080600090507a184f03e93ff9f4daa797ed6e38ed64bf6a1f0100000000000000008310612106577a184f03e93ff9f4daa797ed6e38ed64bf6a1f01000000000000000083816120fc576120fb6135ec565b5b0492506040810190505b6d04ee2d6d415b85acef81000000008310612143576d04ee2d6d415b85acef81000000008381612139576121386135ec565b5b0492506020810190505b662386f26fc10000831061217257662386f26fc100008381612168576121676135ec565b5b0492506010810190505b6305f5e100831061219b576305f5e1008381612191576121906135ec565b5b0492506008810190505b61271083106121c05761271083816121b6576121b56135ec565b5b0492506004810190505b606483106121e357606483816121d9576121d86135ec565b5b0492506002810190505b600a83106121f2576001810190505b80915050919050565b60007f01ffc9a7000000000000000000000000000000000000000000000000000000007bffffffffffffffffffffffffffffffffffffffffffffffffffffffff1916827bffffffffffffffffffffffffffffffffffffffffffffffffffffffff1916149050919050565b612270838383612329565b61232457600073ffffffffffffffffffffffffffffffffffffffff168373ffffffffffffffffffffffffffffffffffffffff16036122e557806040517f7e2732890000000000000000000000000000000000000000000000000000000081526004016122dc9190612951565b60405180910390fd5b81816040517f177e802f00000000000000000000000000000000000000000000000000000000815260040161231b929190613644565b60405180910390fd5b505050565b60008073ffffffffffffffffffffffffffffffffffffffff168373ffffffffffffffffffffffffffffffffffffffff16141580156123e157508273ffffffffffffffffffffffffffffffffffffffff168473ffffffffffffffffffffffffffffffffffffffff1614806123a257506123a18484610f6c565b5b806123e057508273ffffffffffffffffffffffffffffffffffffffff166123c8836112c0565b73ffffffffffffffffffffffffffffffffffffffff16145b5b90509392505050565b5080546123f690612da6565b6000825580601f106124085750612427565b601f0160209004906000526020600020908101906124269190612467565b5b50565b6040518060e00160405280600081526020016060815260200160008152602001606081526020016000815260200160608152602001606081525090565b5b80821115612480576000816000905550600101612468565b5090565b6000604051905090565b600080fd5b600080fd5b60007fffffffff0000000000000000000000000000000000000000000000000000000082169050919050565b6124cd81612498565b81146124d857600080fd5b50565b6000813590506124ea816124c4565b92915050565b6000602082840312156125065761250561248e565b5b6000612514848285016124db565b91505092915050565b60008115159050919050565b6125328161251d565b82525050565b600060208201905061254d6000830184612529565b92915050565b600081519050919050565b600082825260208201905092915050565b60005b8381101561258d578082015181840152602081019050612572565b60008484015250505050565b6000601f19601f8301169050919050565b60006125b582612553565b6125bf818561255e565b93506125cf81856020860161256f565b6125d881612599565b840191505092915050565b600060208201905081810360008301526125fd81846125aa565b905092915050565b6000819050919050565b61261881612605565b811461262357600080fd5b50565b6000813590506126358161260f565b92915050565b6000602082840312156126515761265061248e565b5b600061265f84828501612626565b91505092915050565b600073ffffffffffffffffffffffffffffffffffffffff82169050919050565b600061269382612668565b9050919050565b6126a381612688565b82525050565b60006020820190506126be600083018461269a565b92915050565b6126cd81612688565b81146126d857600080fd5b50565b6000813590506126ea816126c4565b92915050565b600080604083850312156127075761270661248e565b5b6000612715858286016126db565b925050602061272685828601612626565b9150509250929050565b6000806000606084860312156127495761274861248e565b5b6000612757868287016126db565b9350506020612768868287016126db565b925050604061277986828701612626565b9150509250925092565b6000819050919050565b61279681612783565b81146127a157600080fd5b50565b6000813590506127b38161278d565b92915050565b6000602082840312156127cf576127ce61248e565b5b60006127dd848285016127a4565b91505092915050565b6127ef81612783565b82525050565b600060208201905061280a60008301846127e6565b92915050565b600080604083850312156128275761282661248e565b5b6000612835858286016127a4565b9250506020612846858286016126db565b9150509250929050565b600080fd5b600080fd5b600080fd5b60008083601f84011261287557612874612850565b5b8235905067ffffffffffffffff81111561289257612891612855565b5b6020830191508360018202830111156128ae576128ad61285a565b5b9250929050565b6000806000604084860312156128ce576128cd61248e565b5b60006128dc86828701612626565b935050602084013567ffffffffffffffff8111156128fd576128fc612493565b5b6129098682870161285f565b92509250509250925092565b60006020828403121561292b5761292a61248e565b5b6000612939848285016126db565b91505092915050565b61294b81612605565b82525050565b60006020820190506129666000830184612942565b92915050565b6129758161251d565b811461298057600080fd5b50565b6000813590506129928161296c565b92915050565b600080604083850312156129af576129ae61248e565b5b60006129bd858286016126db565b92505060206129ce85828601612983565b9150509250929050565b6129e181612605565b82525050565b600082825260208201905092915050565b6000612a0382612553565b612a0d81856129e7565b9350612a1d81856020860161256f565b612a2681612599565b840191505092915050565b600060e083016000830151612a4960008601826129d8565b5060208301518482036020860152612a6182826129f8565b9150506040830151612a7660408601826129d8565b5060608301518482036060860152612a8e82826129f8565b9150506080830151612aa360808601826129d8565b5060a083015184820360a0860152612abb82826129f8565b91505060c083015184820360c0860152612ad582826129f8565b9150508091505092915050565b60006020820190508181036000830152612afc8184612a31565b905092915050565b600080fd5b7f4e487b7100000000000000000000000000000000000000000000000000000000600052604160045260246000fd5b612b4182612599565b810181811067ffffffffffffffff82111715612b6057612b5f612b09565b5b80604052505050565b6000612b73612484565b9050612b7f8282612b38565b919050565b600067ffffffffffffffff821115612b9f57612b9e612b09565b5b612ba882612599565b9050602081019050919050565b82818337600083830152505050565b6000612bd7612bd284612b84565b612b69565b905082815260208101848484011115612bf357612bf2612b04565b5b612bfe848285612bb5565b509392505050565b600082601f830112612c1b57612c1a612850565b5b8135612c2b848260208601612bc4565b91505092915050565b60008060008060808587031215612c4e57612c4d61248e565b5b6000612c5c878288016126db565b9450506020612c6d878288016126db565b9350506040612c7e87828801612626565b925050606085013567ffffffffffffffff811115612c9f57612c9e612493565b5b612cab87828801612c06565b91505092959194509250565b60008060408385031215612cce57612ccd61248e565b5b6000612cdc858286016126db565b9250506020612ced858286016126db565b9150509250929050565b600080fd5b600060e08284031215612d1257612d11612cf7565b5b81905092915050565b60008060408385031215612d3257612d3161248e565b5b6000612d40858286016126db565b925050602083013567ffffffffffffffff811115612d6157612d60612493565b5b612d6d85828601612cfc565b9150509250929050565b7f4e487b7100000000000000000000000000000000000000000000000000000000600052602260045260246000fd5b60006002820490506001821680612dbe57607f821691505b602082108103612dd157612dd0612d77565b5b50919050565b6000606082019050612dec600083018661269a565b612df96020830185612942565b612e06604083018461269a565b949350505050565b7f5342543a20746f6b656e20646f6573206e6f7420657869737400000000000000600082015250565b6000612e4460198361255e565b9150612e4f82612e0e565b602082019050919050565b60006020820190508181036000830152612e7381612e37565b9050919050565b600082905092915050565b60008190508160005260206000209050919050565b60006020601f8301049050919050565b600082821b905092915050565b600060088302612ee77fffffffffffffffffffffffffffffffffffffffffffffffffffffffffffffffff82612eaa565b612ef18683612eaa565b95508019841693508086168417925050509392505050565b6000819050919050565b6000612f2e612f29612f2484612605565b612f09565b612605565b9050919050565b6000819050919050565b612f4883612f13565b612f5c612f5482612f35565b848454612eb7565b825550505050565b600090565b612f71612f64565b612f7c818484612f3f565b505050565b5b81811015612fa057612f95600082612f69565b600181019050612f82565b5050565b601f821115612fe557612fb681612e85565b612fbf84612e9a565b81016020851015612fce578190505b612fe2612fda85612e9a565b830182612f81565b50505b505050565b600082821c905092915050565b600061300860001984600802612fea565b1980831691505092915050565b60006130218383612ff7565b9150826002028217905092915050565b61303b8383612e7a565b67ffffffffffffffff81111561305457613053612b09565b5b61305e8254612da6565b613069828285612fa4565b6000601f8311600181146130985760008415613086578287013590505b6130908582613015565b8655506130f8565b601f1984166130a686612e85565b60005b828110156130ce578489013582556001820191506020850194506020810190506130a9565b868310156130eb57848901356130e7601f891682612ff7565b8355505b6001600288020188555050505b50505050505050565b600061310d838561255e565b935061311a838584612bb5565b61312383612599565b840190509392505050565b60006020820190508181036000830152613149818486613101565b90509392505050565b600081905092915050565b600061316882612553565b6131728185613152565b935061318281856020860161256f565b80840191505092915050565b600061319a828561315d565b91506131a6828461315d565b91508190509392505050565b7f4e487b7100000000000000000000000000000000000000000000000000000000600052601160045260246000fd5b60006131ec82612605565b91506131f783612605565b925082820190508082111561320f5761320e6131b2565b5b92915050565b600081356132228161260f565b80915050919050565b60008160001b9050919050565b60007fffffffffffffffffffffffffffffffffffffffffffffffffffffffffffffffff6132648461322b565b9350801983169250808416831791505092915050565b61328382612f13565b61329661328f82612f35565b8354613238565b8255505050565b600080fd5b600080fd5b600080fd5b600080833560016020038436030381126132c9576132c861329d565b5b80840192508235915067ffffffffffffffff8211156132eb576132ea6132a2565b5b602083019250600182023603831315613307576133066132a7565b5b509250929050565b61331a838383613031565b505050565b60008101600083018061333181613215565b905061333d818461327a565b505050600181016020830161335281856132ac565b61335d81838661330f565b5050505060028101604083018061337381613215565b905061337f818461327a565b505050600381016060830161339481856132ac565b61339f81838661330f565b505050506004810160808301806133b581613215565b90506133c1818461327a565b5050506005810160a083016133d681856132ac565b6133e181838661330f565b505050506006810160c083016133f781856132ac565b61340281838661330f565b505050505050565b613414828261331f565b5050565b600060c08201905061342d600083018d612942565b8181036020830152613440818b8d613101565b905061344f604083018a612942565b818103606083015261346281888a613101565b90508181036080830152613477818688613101565b905081810360a083015261348c818486613101565b90509b9a5050505050505050505050565b7f5342543a206e6f6e2d7472616e7366657261626c650000000000000000000000600082015250565b60006134d360158361255e565b91506134de8261349d565b602082019050919050565b60006020820190508181036000830152613502816134c6565b9050919050565b600081519050919050565b600082825260208201905092915050565b600061353082613509565b61353a8185613514565b935061354a81856020860161256f565b61355381612599565b840191505092915050565b6000608082019050613573600083018761269a565b613580602083018661269a565b61358d6040830185612942565b818103606083015261359f8184613525565b905095945050505050565b6000815190506135b9816124c4565b92915050565b6000602082840312156135d5576135d461248e565b5b60006135e3848285016135aa565b91505092915050565b7f4e487b7100000000000000000000000000000000000000000000000000000000600052601260045260246000fd5b6000604082019050613630600083018561269a565b61363d60208301846127e6565b9392505050565b6000604082019050613659600083018561269a565b6136666020830184612942565b939250505056fea264697066735822122079f8d0f18307f468643600b42d11eae485ebff64375b5ef487c39d911291f63d64736f6c63430008190033",
  "linkReferences": {},
  "deployedLinkReferences": {}
}